:20000000DAC2000009C3000007C3000005C3000003C3000001C30000FFC20000FDC20000DC
:20002000FBC20000F9C20000F7C20000F5C20000F3C20000F1C20000EFC20000EDC2000010
:20004000EBC20000E9C20000E7C20000E5C20000E3C20000E1C20000DFC200000C94E0117E
:20006000DBC200000C94B80B0C948F0BD5C20000D3C20000D1C20000CFC20000CDC2000067
:20008000CBC20000C9C20000C7C20000C5C20000C3C20000C1C20000BFC20000BDC2000030
:2000A000BBC20000B9C20000B7C20000B5C20000B3C20000B1C20000AFC20000ADC2000090
:2000C000ABC20000A9C20000A7C20000A5C20000A3C20000A1C200009FC200009DC20000F0
:2000E0009BC2000029038903B603CD03FB0339044D04BF04230407051A05FF046205EC0566
:2001000002068906A00627073A07C507D8076E088108B608C608E603000915093C097A0925
:200120007A097A097A097A097A097A097A097A097A097A097A097A097A097A097A097A098F
:200140007A097A097A097A097A097A097A097A097A097A097A097A097A097A097A097A096F
:200160007A097A097A097A097A097A097A097A0979049D05B0057A097A097A097A097A0904
:200180007A097A097A097A097A097A097A097A097A097A097A097A097A097A097A097A092F
:2001A0007A097A097A097A0976095510581047104B1051108F105C10601066106A106E10EB
:2001C000741078107C108F10821086108A10D09FD180D0BED0B2D0B5D180D18CD182D0B54B
:2001E00020D0BDD0B0D181D182D1802100D097D0B0D0B3D18020D0B8D181D18520D0BFD031
:20020000B0D180D0B0D0BC00D0A1D182D0B0D180D18200D09FD180D0BED0B4D183D0B2D071
:20022000BAD0B02056312E3000D0A2D0BED0BBD18CD0BAD0BE20D0B7D0BED0BDD0B02020FD
:2002400000D0A1D182D0B0D180D18220D18120D0B7D0BED0BDD18B2000D09DD0B0D181D1F6
:2002600082D180D0BED0B9D0BAD0B000D09FD180D0BED0B3D0BED0BD00D0A2D0BED0B1D14C
:20028000893A00D0A000204E005A00D0A2D0BED0B1D1893A2000D09AD0BED0BDD0B5D186CD
:2002A00020D186D0B8D0BAD0BBD0B0205000D09AD0BED0BB2DD0B2D0BE20D186D0B8D0BAF1
:2002C000D0BBD0BED0B23A00D09AD0BED0BB2DD0B2D0BE20D0B7D0BED0BD205A3A200050A3
:2002E000D0BA3A0050D0BD3A00D09FD0B0D180D0B0D0BC2E20D186D0B8D0BAD0BBD0B020F5
:20030000310050D0BA3A0050D0BD3A00D09FD0B0D180D0B0D0BC2E20D186D0B8D0BAD0BBF3
:20032000D0BED0B220322B00D0A3D181D18220382E30D0B0D182D0BC203ED092D0B2D0BE33
:20034000D0B400D09AD0B0D0BBD0B8D0B1D180D0BED0B2D0BAD0B0204470310050313A0070
:20036000204E00205A00D09ED188D0B8D0B1D0BAD0B02000D0BDD0B0D187D0B0D0BBD18CCE
:20038000D0BDD0BED0B920D0B7D0BED0BDD18B00D09AD0BED0BB2DD0B2D0BE20D186D0B8DC
:2003A000D0BAD0BBD0BED0B2002020202020202020200050313A2000D09AD0B0D0BBD0B820
:2003C000D0B1D180D0BED0B2D0BAD0B02044703100D0A3D181D18220302E30D0B0D182D0C3
:2003E000BC203ED092D0B2D0BED0B400D09AD0B0D0BBD0B8D0B1D180D0BED0B2D0BAD0B004
:200400002044703100D0A2D09D206D61783A2000D09DD0B0D0B1D0BED18020D0B4D0B0D0F7
:20042000B2D0BBD0B5D0BDD0B8D18F3A00D0A2D09F206D61783A2000D09FD180D0BED0B4D8
:20044000D183D0B2D0BAD0B020D0B7D0BED0BDD18B3A0041A042A1E045A3A4A5A64BA74DAA
:20046000484FA8504354A9AA58E1ABACE2ADAE62AFB0B161B2B3B4E365B6B7B8B9BABBBCF3
:20048000BD6FBE7063BF79E478E5C0C1E6C2C3C4C5C6C7000020002300260029002C002F37
:2004A0000032000001000003010601090100002100240027002A002D0030003300010100CC
:2004C00000040107010A0100002200250028002B002E003100340002010000050108010BBA
:2004E0000105050505070508080808020202020A0A08080404040401010101010101010374
:2005000003030303030303040707070C0C0C0C0C0C0C0C0202020206060606060606060B0A
:200520000B0B0B0B0B0B0B010210202008081020401020408002010201080402010102048F
:20054000081020408080402010080402018004020180402010080402010804020101020408
:200560000810204080010204081020408000000A0B02090C0D0E0807030401000000000026
:20058000000000000000000000000000000000000000000000000000001211100000000028
:2005A0000000000000000000000000000000000000000000CA1A11241FBECFEFD1E2DEBF37
:2005C000CDBF00E00CBF23E0A2EEB2E001C01D92A73FB207E1F712E0A0E0B2E0E0E2FCE333
:2005E00000E00BBF02C007900D92A23EB107D9F712E0CBEDD2E000E006C021970109802F7E
:20060000FE010E94021ECA3DD10780E00807A9F70E943C150C940E1EF3CCCF92DF92EF925A
:20062000FF9220910202309103022430310509F461C6E0911D028E2F90E0FC013197E33665
:20064000F10508F057C68827EE58FF4F8F4F0C94021E0E945D1380910202909103028130B0
:20066000910581F48091E2028F5F8093E2028A3008F440C68BE180931D020E94770C109274
:20068000E20238C68230910549F41092E20284E080931D0281E080931B02E7C0892B09F0F2
:2006A00029C61092E20282E080931D0281E08093040280931B0280931A029091060290930C
:2006C000070280931C028093E8021092FA021092ED021092F2021092F3021092F40210924D
:2006E000F5021092EE021092EF021092F0021092F1020E94D4116093F6027093F702809334
:20070000F8029093F902FF90EF90DF90CF900C949C0E22303105C1F481E08093ED0284E097
:2007200080931D0280911A0280931B0290910502891718F48F5F80931B0280911B028093F7
:200740001A020E945D133FC02330310509F0D2C583E080931D020E94FD0D81E08093ED02AF
:20076000FF90EF90DF90CF900C945D130E945D1361E085E30E94B510809102029091030230
:20078000009719F0039709F0B5C581E080931D028093ED021092FA0228C02130310531F4E5
:2007A00081E080931D020E94E60F92C52230310521F486E080931D021FC12115310571F4D2
:2007C00085E080931D020E94BE0F18C5C9010197029708F48FC52115310521F023303105E5
:2007E00009F088C581E080931D02FF90EF90DF90CF900C94E60F2130310569F485E0809353
:200800001D0280911B02909105028917E0F68F5F80931B02D8CF2230310549F485E08093EB
:200820001D0280911B02823070F28150F1CF21153105A1F487E480931D0281E080930402AE
:200840008091060261C021303105C9F02230310509F49DC02115310509F4D5C023303105B5
:2008600009F048C584E080931D020E94BE0F60E0B1C121303105B1F32230310531F488E07B
:2008800080931D020E94AE0FB9C42115310509F0A5CF87E080931D020FC02130310579F415
:2008A00087E080931D0280911B0290910502891718F48F5F80931B020E94BE0F09C52230F0
:2008C000310549F487E080931D0280911B02823098F38150EFCF2115310531F487E4809303
:2008E0001D021092040255C12330310509F002C560CF2130310569F487E480931D02809111
:2009000007028E3118F48F5F809307020E94990CDFC42230310549F487E480931D0280919C
:200920000702823098F38150EFCF2115310509F582E080931D0281E08093E8021092ED02F5
:2009400090911B0290931A0280931C021092F2021092F3021092F4021092F5021092EE02F9
:200960001092EF021092F0021092F1020E949C0E2FC02330310509F0BDC484E022CF2130D7
:20098000310511F486E02FC02230310531F489E080931D020E94AE0F9BC421153105F1F470
:2009A00082E080931D020E949C0E81E08093E8021092ED02809304028093EC0280931B021E
:2009C00080931A02909100029093070280931C02FF90EF90DF90CF900C94ED142330310562
:2009E00009F088C484E080931D0281E080931B0280910002809307020E94BE0FEAC02130F2
:200A0000310509F050C08AE080931D0249C02130310509F4BCCF2230310521F48CE08093C7
:200A20001D0288C02115310509F0D8CE8BE080931D020DC02130310569F48BE080931D0259
:200A4000809105028C3018F48F5F809305020E94D50DD4C32230310549F48BE080931D0231
:200A600080910502823098F38150EFCF2115310551F48CE080931D02609105028CE090E06F
:200A80000E948A1C57C02330310509F033C48AE080931D028CE090E00E947D1C80930502B1
:200AA0000E94D50DE4CE2230310521F488E480931D0230C02115310509F090CE8DE0809392
:200AC0001D020DC02130310569F48DE080931D02809106028E3118F48F5F809306020E9418
:200AE000D50DF6C32230310549F48DE080931D0280910602823098F38150EFCF21153105A6
:200B000061F488E480931D02609106028BE090E00E948A1C8091000259C02330310509F018
:200B2000E9C38CE080931D028BE090E00E947D1C809306020E94D50D4CC02130310509F426
:200B40006DCF2230310521F48EE080931D0219C22115310509F042CE89E480931D0219C054
:200B60002130310549F489E480931D02809100028E3178F48F5F0BC02230310569F489E4C9
:200B800080931D0280910002823018F081508093000280910002B8CE2115310551F48EE0B8
:200BA00080931D026091000280E090E00E948A1CE8C12330310509F09DC388E480931D02CF
:200BC00080E090E00E947D1C8093000280930702B0D661E08DE07EC32130310509F466CFAB
:200BE0002230310521F480E180931D0270C02115310509F0F3CD8FE080931D02A8D761E00F
:200C000085E068C32130310539F58FE080931D02C0900E02D0900F02E0901002F090110208
:200C200020E030E040E051E4C701B6010E94541B87FF10C020E030E040E05FE3C701B60178
:200C40000E94AB1C60930E0270930F0280931002909311027CD737C122303105F1F48FE092
:200C600080931D02C0900E02D0900F02E0901002F090110220E030E040E05FE3C701B6016B
:200C80000E94A81D181634F720E030E040E05FE3C701B6010E94AA1CD5CF21153105C9F46E
:200CA00080E180931D0220E030E040E251E460910E0270910F0280911002909111020E942E
:200CC000B91B0E94771D8AE090E00E948A1C3FD702C22330310509F00DC38EE080931D021C
:200CE0008AE090E00E947D1C682F70E080E090E00E94581B20E030E040E251E40E940F1DDE
:200D000060930E0270930F02809310029093110238C12130310529F48EE080931D0245D708
:200D200031C12230310521F482E180931D026DC02115310509F052CD81E180931D0228C062
:200D40002130310539F581E180931D02C0900A02D0900B02E0900C02F0900D0220E030E064
:200D600040E051E4C701B6010E94541B87FF10C020E030E040E05FE3C701B6010E94AB1CDE
:200D800060930A0270930B0280930C0290930D02DED637C122303105F1F481E180931D0244
:200DA000C0900A02D0900B02E0900C02F0900D0220E030E040E05FE3C701B6010E94A81D05
:200DC000181634F720E030E040E05FE3C701B6010E94AA1CD5CF21153105C9F482E180931E
:200DE0001D0220E030E040E251E460910A0270910B0280910C0290910D020E94B91B0E94FB
:200E0000771D89E090E00E948A1C73D6BBC02330310509F06FC280E180931D0289E090E03A
:200E20000E947D1C682F70E080E090E00E94581B20E030E040E251E40E940F1D60930A0277
:200E400070930B0280930C0290930D0240CF2130310509F4C8CE2230310521F484E18093F1
:200E60001D0238C12115310509F0B8CC83E180931D0228C02130310549F583E180931D0298
:200E8000C0901602D0901702E0901802F090190220E030E040E051E4C701B6010E94541B57
:200EA00087FF10C020E030E040E05FE3C701B6010E94AB1C6093160270931702809318022E
:200EC0009093190216D661E086E004C222303105F1F483E180931D02C0901602D090170297
:200EE000E0901802F090190220E030E040E05FE3C701B6010E94A81D181624F720E030E01C
:200F000040E05FE3C701B6010E94AA1CD3CF21153105C1F484E180931D0220E030E040E2FC
:200F200051E4609116027091170280911802909119020E94B91B0E94771D88E090E00E94CC
:200F40008A1CC8C02330310509F0D4C182E180931D0288E090E00E947D1C682F70E080E05D
:200F600090E00E94581B20E030E040E251E40E940F1D609316027093170280931802909340
:200F80001902E5D561E082E0A5C12130310509F4CBCE2230310521F486E180931D02E4C07C
:200FA0002115310509F01ACC85E180931D0228C02130310549F585E180931D02C0901202A5
:200FC000D0901302E0901402F090150220E030E040E051E4C701B6010E94541B87FF10C034
:200FE00020E030E040E05FE3C701B6010E94AB1C6093120270931302809314029093150215
:2010000078D561E08EE066C12230310549F585E180931D02C0901202D0901302E0901402F0
:20102000F090150220E030E040E05FE3C701B6010E94A81D181684F420E030E040E05FE3A9
:20104000C701B6010E94AA1C609312027093130280931402909315024CD561E08CE03AC15E
:2010600021153105C1F486E180931D0220E030E040E251E46091120270911302809114020D
:20108000909115020E94B91B0E94771D87E090E00E948A1C69C02330310509F02BC184E151
:2010A00080931D0287E090E00E947D1C682F70E080E090E00E94581B20E030E040E251E4B9
:2010C0000E940F1D609312027093130280931402909315020ED561E08AE0FCC021303105EF
:2010E00009F4BCCE2230310521F488E180931D0284C02115310509F071CB87E180931D02B2
:201100000DC02130310561F487E180931D0280910902883718F48F5F8093090299D344C029
:201120002230310549F487E180931D02809109028230A0F38150F0CF2115310541F488E155
:2011400080931D026091090282E090E046C02330310509F0CFC086E180931D0282E090E00D
:201160000E947D1C8093090273D348C02130310509F412CF2230310509F4B7CF21153105EC
:2011800009F02CCB89E180931D020DC02130310571F489E180931D02809108028C3318F488
:2011A0008F5F809308021AD361E08BE093C02230310549F489E180931D028091080282300A
:2011C00090F38150EECF2115310551F488E180931D026091080281E090E00E948A1C0DC0D1
:2011E0002330310509F086C088E180931D0281E090E00E947D1C80930802F0D260E069C038
:201200002130310541F48BE180931D02FF90EF90DF90CF906CC3C9018D7F892B09F0DECA3E
:201220008CE180931D024ED353C02130310559F32230310521F48DE180931D0248C021158D
:20124000310509F04FC08DE180931D02609100037091010370931F0260931E0285E090E0AB
:201260000E946F1468E472E08DE393E057D280911E0290911F0229C02130310541F48CE11A
:2012800080931D02FF90EF90DF90CF901BC32230310589F22115310529F58BE180931D0237
:2012A0006091000370910103709321026093200283E090E00E946F146FE472E08DE393E07A
:2012C0002DD280912002909121020E94001401D461E08FE00E94BF14FF90EF90DF90CF900C
:2012E0000C9495142330310529F48DCF2430310508F44DCBFF90EF90DF90CF900895CF922B
:20130000DF92EF92FF920F931F93CF93DF936C017A018B01C0E0D0E0CE15DF0589F0D80145
:201320006D918D01D601ED91FC910190F081E02DC6011995892B11F47E0102C02196ECCF4F
:20134000C701DF91CF911F910F91FF90EF90DF90CF900895FC01538D448D252F30E0842F67
:2013600090E0821B930B541710F0CF96089501970895FC01918D828D981761F0828DDF0107
:20138000A80FB11D5D968C91928D9F5F9F73928F90E008958FEF9FEF0895FC01918D828D88
:2013A000981731F0828DE80FF11D858D90E008958FEF9FEF08950E940A1E8DE393E016D6E8
:2013C00021E0892B09F420E0822F0895EF92FF920F931F93CF93DF93EC0181E0888F9B8D46
:2013E0008C8D981305C0E889F989808185FD23C0F62E0B8D10E00F5F1F4F0F731127E02EBB
:201400008C8DE8120BC00FB607FCFACFE889F989808185FFF5CFCE0187D6F2CF8B8DFE011D
:20142000E80FF11DE35AFF4FF0820B8FEA89FB898081806207C0EE89FF896083E889F9899A
:2014400080818064808381E090E0DF91CF911F910F91FF90EF900895CF93DF93EC01888D32
:201460008823C1F0EA89FB89808185FD05C0A889B9898C9186FD0EC00FB607FCF5CF808163
:2014800085FFF2CFA889B9898C9185FFEDCFCE014BD6E8CFDF91CF910895DC01ED91FC913B
:2014A0000190F081E02D19946115710579F0FB0101900020E9F73197AF01461B570BDC0176
:2014C000ED91FC910280F381E02D199480E090E008954F925F926F927F92EF92FF920F934C
:2014E0001F93CF93DF93CDB7DEB7A1970FB6F894DEBF0FBECDBF7C01FA01CB0119A222307D
:2015000008F42AE08E010F5D1F4F422E512C612C712CBF01A30192010E94C41DF901CA0106
:20152000015011096A3014F4605D01C0695CD8016C93232B242B252B61F7B801C701B4DF2A
:20154000A1960FB6F894DEBF0FBECDBFDF91CF911F910F91FF90EF907F906F905F904F9003
:2015600008954F925F926F927F928F929F92AF92BF92CF92DF92EF92FF92CF93DF93EC0161
:201580006A017B01B22E9A01AB01C701B6010E94AC1D882319F068E572E027C026013701BA
:2015A000E89477F82FEF3FEF4FE75FE7C301B2010E94AC1D81110DC02FEF3FEF4FE75FE76F
:2015C000C301B2010E94541B18161CF46CE572E00CC02FEF3FEF4FE75FE4C701B6010E94F0
:2015E000A81D181694F460E672E0CE01DF91CF91FF90EF90DF90CF90BF90AF909F908F9081
:201600007F906F905F904F904FCF2FEF3FEF4FE75FECC701B6010E94541B87FDE4CF20E03C
:2016200030E0A901C701B6010E94541B87FF09C06DE2CE0132DF4C01F7FAF094F7F8F094AD
:2016400002C0812C912CA12C60E070E080E09FE3AB1441F020E030E040E251E40E940F1DFA
:20166000A394F6CF9B01AC01C701B6010E94AB1C2B013C010E947C1D6B017C010E94581B9B
:201680009B01AC01C301B2010E94AA1C2B013C012AE0B701A601CE011CDF7C01E80CF91C00
:2016A000BB2029F06EE2CE01F8DEE80EF91EDB2CDD2021F120E030E040E251E4C301B20140
:2016C0000E94B91B2B013C010E947C1D4B01A12CB12C2AE0B501A401CE01FBDEE80EF91EE0
:2016E000C501B4010E94581B9B01AC01C301B2010E94AA1C2B013C01DA94DACFC701DF917A
:20170000CF91FF90EF90DF90CF90BF90AF909F908F907F906F905F904F900895C5CE1F92F4
:201720000F920FB60F9211240BB60F922F933F934F935F936F937F938F939F93AF93BF93A7
:20174000EF93FF938DE393E0EFD4FF91EF91BF91AF919F918F917F916F915F914F913F912F
:201760002F910F900BBE0F900FBE0F901F9018951F920F920FB60F9211240BB60F922F93C9
:201780008F939F93EF93FF93E0914D03F0914E038081E0915303F091540382FD12C090814C
:2017A000809156038F5F8F7320915703821751F0E0915603F0E0E35CFC4F958F8093560336
:2017C00001C08081FF91EF919F918F912F910F900BBE0F900FBE0F901F9018958CED93E06C
:2017E00000D760E080E00E94BF1488E394E00E949E1461E080E00E94BF148DE294E00E942F
:201800009E148091080290E090932F0380932E038436910528F46FE772E08CED93E07EDF95
:2018200080912E0390912F030A9728F46FE772E08CED93E073DF80912E0390912F030E9439
:20184000FE1461E872E08CED93E068DF0C94ED148CED93E0C6D660E080E00E94BF1480E109
:2018600094E00E949E1461E080E00E94BF1485E094E00E949E148091090290E090932F037C
:2018800080932E038436910528F46FE772E08CED93E044DF80912E0390912F030A9728F48F
:2018A0006FE772E08CED93E039DF80912E0390912F030E94FE1469E872E08CED93E02EDF97
:2018C0000C94ED148CED93E08CD660E080E00E94BF148CEE93E00E949E1461E080E00E9480
:2018E000BF1481ED93E00E949E140C94951460E080E00E94BF1488EB93E00E949E1461E007
:2019000080E00E94BF1483EB93E00E949E144091FC025091FD026091FE027091FF0223E018
:201920008CED93E01EDE89EA93E00E949E140C94ED148CED93E055D660E080E00E94BF14B8
:2019400080E993E0FBD761E080E00E94BF1484E793E0F4D7809107028A3028F46DE472E087
:201960008CED93E0DBDE809107020E94F514DDC7EF92FF920F931F93CF93DF938CED93E033
:2019800030D660E080E0FBD786E693E0D7D78091EB020E94F51483E693E0D0D780911A02E9
:2019A0000E94F51480E693E0C9D780911C020E94F51461E080E0E3D78CE593E0BFD7409183
:2019C000FC025091FD026091FE027091FF0221E08CED93E0C6DD6091F2027091F3028091BA
:2019E000F4029091F50228EE33E040E050E00E94E61D89019A01F80110932D0300932C0308
:201A000080E1E82E8EE0F82EC801B7010E94B01DEB0170932B0360932A036E9DC0016F9DB6
:201A2000900D7E9D900D1124A801481B590BCA012CE330E0B9010E94B01D70932F03609371
:201A40002E03CF01B9010E94B01D909329038093280361E088E093D72A9728F46FE772E037
:201A60008CED93E05BDE80912A0390912B03C6D761E972E08CED93E051DE80912E039091FD
:201A80002F030A9728F46FE772E08CED93E046DE80912E0390912F03B1D761E972E08CED6D
:201AA00093E03CDE80912803909129030A9728F46FE772E08CED93E031DE80912803909153
:201AC00029039CD7DF91CF911F910F91FF90EF9084C78CED93E085D560E080E050D783E47A
:201AE00093E02CD761E080E04AD788E293E026D71CC78CED93E075D560E080E040D78CE098
:201B000093E01CD761E080E03AD787E093E016D740911602509117026091180270911902DC
:201B200021E08CED93E01DDD61E088E028D782E093E004D740911202509113026091140284
:201B40007091150221E08CED93E00BDD46C78CED93E047D560E080E012D789EE92E0EED64D
:201B600061E080E00CD784EE92E0E8D640910E0250910F02609110027091110221E08CEDDB
:201B800093E0EFDC61E088E0FAD68FED92E0D6D640910A0250910B0260910C0270910D021A
:201BA00021E08CED93E0DDDC18C78CED93E019D560E080E0E4D688EC92E0C0D680910502D8
:201BC0008A3028F46DE472E08CED93E0A7DD809105020BD761E080E0D2D68EEA92E0AED66B
:201BE000809106028A3028F46DE472E08CED93E095DD80910602F9D6F0C6EF92FF920F93A3
:201C00001F93CF93DF938CED93E0EBD460E080E0B6D686E992E092D64091FC025091FD026F
:201C20006091FE027091FF0222E08CED93E099DC61E080E0A4D68BE892E080D66091F20213
:201C40007091F3028091F4029091F50228EE33E040E050E00E94E61D89019A01F801109390
:201C60002D0300932C0380E1E82E8EE0F82EC801B7010E94B01DEB0170932B0360932A033A
:201C80006E9DC0016F9D900D7E9D900D1124A801481B590BCA012CE330E0B9010E94B01D5F
:201CA00070932F0360932E03CF01B9010E94B01D909329038093280361E088E060D62A97A5
:201CC00028F46FE772E08CED93E028DD80912A0390912B0393D661E972E08CED93E01EDDD6
:201CE00080912E0390912F030A9728F46FE772E08CED93E013DD80912E0390912F037ED625
:201D000061E972E08CED93E009DD80912803909129030A9728F46FE772E08CED93E0FEDCA1
:201D2000809128039091290369D6DF91CF911F910F91FF90EF9051C6EF92FF920F931F9330
:201D4000CF93DF938CED93E04CD460E080E017D689E892E0F3D580911A028A3028F46DE417
:201D600072E08CED93E0DADC80911A023ED686E892E0E4D580911C028A3028F46DE472E0ED
:201D80008CED93E0CBDC80911C022FD66091EE027091EF028091F0029091F10228EE33E069
:201DA00040E050E00E94E61D89019A01F80110932D0300932C0380E1E82E8EE0F82EC801A7
:201DC000B7010E94B01DEB0170932B0360932A036E9DC0016F9D900D7E9D900D1124A80194
:201DE000481B590BCA012CE330E0B9010E94B01D70932F0360932E03CF01B9010E94B01DB7
:201E0000909329038093280360E088E0B8D52A9728F46FE772E08CED93E080DC80912A03F5
:201E200090912B03EBD561E972E08CED93E076DC80912E0390912F030A9728F46FE772E0BF
:201E40008CED93E06BDC80912E0390912F03D6D561E972E08CED93E061DC809128039091ED
:201E600029030A9728F46FE772E08CED93E056DC8091280390912903C1D561E080E07FD59F
:201E800083E892E05BD54091FC025091FD026091FE027091FF0222E08CED93E062DB61E027
:201EA00086E06DD589E792E049D56091F2027091F3028091F4029091F50228EE33E040E037
:201EC00050E00E94E61D89019A0110932D0300932C03C0E1DEE0C801BE010E94B01DFB0121
:201EE00070932B0360932A036C9FC0016D9F900D7C9F900D1124A801481B590BCA016CE3A5
:201F000070E00E94B01D70932F0360932E033A9728F46FE772E08CED93E000DC80912A030E
:201F200090912B036BD561E972E08CED93E0F6DB80912E0390912F030A9728F46FE772E0BF
:201F40008CED93E0EBDB80912E0390912F03DF91CF911F910F91FF90EF9050C58CED93E00B
:201F600040D360E080E00BD58CE692E0E7D461E080E005D589E592E0E1D42FC58CED93E03F
:201F800030D360E080E0FBD481E492E0D7D480911B028A3028F46DE472E08CED93E0BEDB21
:201FA00080911B0222D561E080E0E9D489E292E0C5D480911B028A3028F46DE472E08CED08
:201FC00093E0ACDB80911B0210D507C58CED93E008D360E080E0D3D483E192E0AFD461E080
:201FE00080E0CDD488E092E0A9D49FC4FC01918D228D892F90E0805C9F4F821B91098F7331
:202000009927089580E090E0892B19F0D6D9811125C080E090E0892B41F080E090E0892B77
:2020200021F00E94000081111CC080E090E0892B41F080E090E0892B21F00E940000811101
:2020400013C080E090E0892BA1F080E090E0892B81F00E94000081110AC008950E94000066
:20206000D8CF0E940000E1CF0E940000EACF0C940000089590E0FC013197E231F10508F099
:202080004EC08827EB52FF4F8F4F0C94021E809180008F7703C0809180008F7D80938000D0
:2020A000089580918000877FF9CF84B58F7702C084B58F7D84BD08958091B0008F7703C076
:2020C0008091B0008F7D8093B0000895809190008F7707C0809190008F7D03C08091900054
:2020E000877F8093900008958091A0008F7707C08091A0008F7D03C08091A000877F8093D2
:20210000A0000895809120018F7707C0809120018F7D03C080912001877F80932001089579
:20212000089580E090E00895FC01848DDF01A80FB11DA35ABF4F2C91848D90E001968F7340
:202140009927848FA689B7892C93A089B1898C9180648C93938D848D981306C00288F38953
:20216000E02D80818F7D808308951F93CF93DF93282F30E0F901E359FA4F8491F901E95DE4
:20218000FA4FD491F901EF51FB4FC491CC23C1F0162F81116FDFEC2FF0E0EE0FFF1FE953B1
:2021A000FB4FA591B4918FB7F894111105C09C91ED2FE095E92302C0EC91ED2BEC938FBFB3
:2021C000DF91CF911F910895CF93DF9390E0FC01E95DFA4F2491FC01EF51FB4F8491882316
:2021E00061F190E0880F991FFC01E355FB4FC591D491FC01E953FB4FA591B491611109C05B
:202200009FB7F8948881209582238883EC912E230BC0623061F49FB7F8943881822F80958D
:2022200083238883EC912E2B2C939FBF06C08FB7F894E8812E2B28838FBFDF91CF9108953A
:202240007F928F929F92AF92BF92CF92DF92EF92FF920F931F93CF93DF93EC017C0187E0AC
:20226000E80EF11C5701C12CD12C062F10E060E0C016D10644F4F50181915F01A5DFFFEFF5
:20228000CF1ADF0AF4CF8E8170DF61E08E816DDFA12CB12C812CCC24C394D12CA016B106A7
:2022A0006CF5F70121917F0130E0F901E359FA4F8491F901E95DFA4F7490F901EF51FB4FDE
:2022C00094909920C1F08111D5DEE92DF0E0EE0FFF1FED56FB4FA591B491EC917E2259F0BC
:2022E000C6010A2C01C0880F0A94EAF7882AFFEFAF1ABF0AD3CF80E090E0F8CF60E08E8150
:2023000034DF882DDF91CF911F910F91FF90EF90DF90CF90BF90AF909F908F907F90089571
:20232000863308F0865390917B00282F2870977F922B90937B008770806480937C0080919C
:202340007A00806480937A0080917A0086FDFCCF809178002091790090E0922B08953FB746
:20236000F8948091390390913A03A0913B03B0913C0326B5A89B05C02F3F19F00196A11D88
:20238000B11D3FBFBA2FA92F982F8827820F911DA11DB11DBC01CD0142E0660F771F881F10
:2023A000991F4A95D1F708952FB7F894609135037091360380913703909138032FBF08951A
:2023C0001F920F920FB60F9211242F933F938F939F93AF93BF938091350390913603A091C0
:2023E0003703B09138033091340323E0230F2D3720F40196A11DB11D05C026E8230F0296C2
:20240000A11DB11D209334038093350390933603A0933703B09338038091390390913A0309
:20242000A0913B03B0913C030196A11DB11D8093390390933A03A0933B03B0933C03BF9198
:20244000AF919F918F913F912F910F900FBE0F901F9018958F929F92AF92BF92CF92DF923F
:20246000EF92FF920F931F93CF93DF93EC016C0187E0C80ED11C00E010E0E42EF12CA62ECB
:20248000B12C0E151F05A4F4460161E0F60181916F019ADEB501002E02C0759567950A94BD
:2024A000E2F76170F401808160DE0F5F1F4FE9CF60E08E815ADE61E08E8157DE60E08E814F
:2024C00054DE8BE891E00197F1F7DF91CF911F910F91FF90EF90DF90CF90BF90AF909F90AD
:2024E0008F9008951F93CF93DF93EC01162F642F8C813BDE8D818F3F11F060E036DE8F856A
:2025000084FF02C048E00BC0612F70E084E0759567958A95E1F744E0CE019CDF44E0612F20
:20252000CE01DF91CF911F9195CF40E0DBCF0F931F93CF93DF93EC01162F8D89813019F5EF
:2025400060E08C8112DE8D818F3F11F061E00DDE8F8584FF04C068E0CE0172DE0AC064E065
:20256000CE016EDE082F0295007F64E0CE0168DE802B8F7798EF980F9C3028F4885C682F58
:202580006068CE01D2DF17FF21C0103C18F0105D1E8B20C01F73EE89E11105C0113051F46C
:2025A00041E062EA15C0E13029F4113119F441E065EB0EC080E4E89FF00111247097E10F15
:2025C000F11DED5AFB4F649141E002C041E0612FCE0188DF81E090E0DF91CF911F910F91AC
:2025E000089561E0A2DF8BE39FE10197F1F70895CF93DF93D82F91E09093330310923203F5
:2026000010923103109230031092EA021092E9029093FB021092E70261E083E3A6DD60E0DF
:2026200082E3A3DDC6E261E08C2F9FDDCF5FC233D1F760E085E28D0FDF91CF9196CDCF93D2
:2026400081E08093E9021092320310923103109230031092EA02109233038093FB02109281
:20266000E70261E083E381DD60E082E37EDDC6E261E08C2F7ADDCF5FC233D1F7CF91089589
:20268000CF9381E08093320310923103109230031092EA021092E9021092330360E083E3EB
:2026A00064DD60E082E361DDC6E261E08C2F5DDDCF5FC233D1F7CF910895CF93C1E0C093DA
:2026C000300310923203109231031092EA021092E9021092330368DE6093E3027093E40220
:2026E0008093E5029093E602C093E7021092FB0261E083E33ADD61E082E337DDC6E261E099
:202700008C2F33DDCF5FC233D1F7CF9108950F931F93CF93DF93EC01623018F08F8588605B
:202720008F876B8B1C8A8BE39DE00197F1F760E08C811BDD60E08E8118DD8D818F3F11F016
:2027400060E013DD6F8564FD1DC044E063E0CE0181DE0BE416E4C8010197F1F744E063E0E9
:20276000CE0178DEC8010197F1F744E063E0CE0171DE83E592E00197F1F744E062E0CE01D7
:2027800069DE13C06062CE01D0DE8BE496E40197F1F76F856062CE01C8DE83E592E00197DA
:2027A000F1F76F856062CE01C0DE6F856062CE01BCDE84E0888B6CE0CE01B7DECE0111DF09
:2027C00082E0898B66E0CE01DF91CF911F910F91ACCECF93DF93482F50E060E070E02AE0BF
:2027E0008DE393E00E94690AEC0163E972E08DE393E00E94540A8C0F9D1FDF91CF910895AF
:20280000CF92DF92EF92FF92CF93DF936C01990FEE08FF08F7FE16C06DE28DE393E00E944F
:202820004D0AEC0144275527BA014C195D096E097F092AE08DE393E00E94690A7C01EC0E6F
:20284000FD1E08C02AE0B701A6018DE393E00E94690A7C0163E972E08DE393E00E94540A36
:202860008E0D9F1DDF91CF91FF90EF90DF90CF900895CF93DF93AB01BC0122E08DE393E096
:202880000E94B10AEC0163E972E08DE393E00E94540A8C0F9D1FDF91CF910895CF93DF93D5
:2028A000BC018DE393E00E94540AEC0163E972E08DE393E00E94540A8C0F9D1FDF91CF91E3
:2028C00008959C012E5F3F4F2130324014F40C94851C86E992E0E2DF80E090E008952091D7
:2028E000F3033091F4032F5F3F4F3093F4032093F3034091DA035091DB034115510519F089
:20290000421753071CF480EC92E008C09C012E5F3F4F213032402CF086E992E0BFDF80E0D8
:2029200008950E94981C81E00895ECEDF3E06089862F8160808B6960CF01F7CD0F931F93BF
:20294000CF93DF938C01C0E0D0E0F801EC0FFD1F6491662371F0E091DC03F091DD03019095
:20296000F081E02D8CED93E01995892B11F02196ECCFCE01DF91CF911F910F910895CF932A
:20298000DF93CDB7DEB728970FB6F894DEBF0FBECDBF28E0E2E2F2E0DE01119601900D9252
:2029A0002A95E1F72091EF03621710F06FEF620FFE013196E60FF11DE60FF11D9081682F21
:2029C000690F60688CED93E028960FB6F894DEBF0FBECDBFDF91CF91A8CDECEDF3E06089EC
:2029E0006E7F608B6860CF01A0CD482F50E060E070E02AE08CED93E00C94690AAC0160E0CD
:202A000070E02AE08CED93E00C94690A8F929F92AF92BF92CF92DF92EF92FF92A0DC4B01CD
:202A20005C0184EFC82EDD24D394E12CF12C97DCDC01CB0188199909AA09BB09883E9340CF
:202A4000A105B10558F021E0C21AD108E108F10888EE880E83E0981EA11CB11CC114D104E1
:202A6000E104F10421F7FF90EF90DF90CF90BF90AF909F908F900895789484B5826084BDA7
:202A800084B5816084BD85B5826085BD85B5816085BD80916E00816080936E00109281001C
:202AA0008091810082608093810080918100816080938100809180008160809380008091F1
:202AC000B10084608093B1008091B00081608093B00080919100826080939100809191006E
:202AE000816080939100809190008160809390008091A10082608093A1008091A100816051
:202B00008093A1008091A00081608093A0008091210182608093210180912101816080934B
:202B200021018091200181608093200180917A00846080937A0080917A00826080937A0036
:202B400080917A00816080937A0080917A00806880937A001092C10061E083E306DB61E050
:202B600082E303DB61E085E300DBC6E261E08C2FFCDACF5FC233D1F7C6E261E08C2F24DB86
:202B8000CF5FC233D1F761E083E31EDB61E082E31BDB61E085E318DBE0914D03F0914E03DF
:202BA00082E08083E0914903F0914A031082E0914B03F0914C0380E1808310925503E09135
:202BC0005103F091520386E08083E0914F03F0915003808180618083E0914F03F09150034F
:202BE000808188608083E0914F03F0915003808180688083E0914F03F091500380818F7DC2
:202C000080838CED93E0EDDC62E08CED93E07FDD8DE090E072D68D3409F483C06DE48DE08E
:202C200090E078D6609105028CE090E073D6609106028BE090E06ED620E030E040E251E43A
:202C400060910E0270910F02809110029091110290D54DD78AE090E05DD620E030E040E242
:202C600051E460910A0270910B0280910C0290910D027FD53CD789E090E04CD620E030E053
:202C800040E251E4609116027091170280911802909119026ED52BD788E090E03BD620E025
:202CA00030E040E251E4609112027091130280911402909115025DD51AD787E090E02AD639
:202CC00060911E0270911F0285E090E008DE609120027091210283E090E001DE6091090221
:202CE00082E090E017D66091080281E090E012D66091000280E090E00DD683E680931D0220
:202D00008CED93E06EDC60E080E039DE8DEE91E015DE61E080E033DE8EEC91E00FDE5DDE22
:202D2000C6C08CE090E0E9D5809305028BE090E0E4D5809306028AE090E0DFD5682F70E035
:202D400080E090E0B5D420E030E040E251E467D660930E0270930F02809310029093110204
:202D600089E090E0CAD5682F70E080E090E0A0D420E030E040E251E452D660930A0270931F
:202D80000B0280930C0290930D0288E090E0B5D5682F70E080E090E08BD420E030E040E229
:202DA00051E43DD66093160270931702809318029093190287E090E0A0D5682F70E080E0A6
:202DC00090E076D420E030E040E251E428D66093120270931302809314029093150285E0ED
:202DE00090E06FDD90931F0280931E0283E090E068DD909321028093200282E090E07DD5E9
:202E00008093090281E090E078D58093080280E090E073D58093000280910502DADC80914D
:202E20000602D7DC60910E0270910F0280911002909111021EDD60910A0270910B02809156
:202E40000C0290910D0215DD609116027091170280911802909119020CDD609112027091C9
:202E60001302809114029091150203DD60E070E086EF92E4FEDC60E070E084EE93E4F9DC5B
:202E800080911E0290911F02BBDC8091200290912102B6DC809109029CDC8091080299DCFB
:202EA0008091000296DC81E080931D028FD880E037DA8233910578F0883C910560F080390C
:202EC00021E0920740F0883532E0930720F08032934008F459C368DA6093190370931A03A1
:202EE00080931B0390931C03109224031092250310922603109227031092200310922103AA
:202F0000109222031092230382E0F82EC1E0D3E033243A949AE1E92E47DA00912403109115
:202F200025032091260330912703DC01CB01801B910BA20BB30B85369105A105B10508F4B0
:202F400090C032DA6093240370932503809326039093270380E0E4D98233910588F0883CA3
:202F6000910588F0803951E0950780F0883522E0920778F08032934078F484E090E00EC0FA
:202F800080E090E00BC081E090E008C082E090E005C083E090E002C08FEF9FEF909303029D
:202FA000809302028F3F4FEF940729F4109203033092010256C0209103032130F9F028F0AA
:202FC000223029F1233099F14CC080930102C09303031092020364E672E08DE393E00E9465
:202FE0008E0B80911D02F5DB6FE672E08DE393E00E948E0B80910102ECDB33C020910102F1
:2030000030E02817390749F5F092030323C02091010230E02817390701F5809102038F5F3B
:20302000853080F010920203D09303031AC02091010230E02817390781F4809102038F5FC5
:20304000833018F4809302030CC01092020384E792E024DC0E940D0304C08093010210921B
:203060000303A2D900912003109121032091220330912303DC01CB01801B910BA20BB30B4E
:2030800085369105A105B10508F447C08DD96093200370932103809322039093230387E3F2
:2030A0003FD98C0190931F0380931E039093010380930003C0901E02D0901F0260912002B1
:2030C000709121026C197D09072E000C880B990BF1D29B01AC0160E070E080E091E49FD465
:2030E0002B013C01B8016C197D09072E000C880B990BE0D29B01AC01C301B2013AD36093B9
:20310000FC027093FD028093FE029093FF0280911D028B3111F40E94770C8091E7028823BD
:20312000D9F042D90091E3021091E4022091E5023091E602DC01CB01801B910BA20BB30B22
:20314000893B9B40A105B105E8F11092E70210921D0361E085E334C08091FB02882391F176
:203160001092E70280911D03882319F01092FB0229C020E030E040E450E46091FC027091FF
:20318000FD028091FE029091FF028ED287FF12C01092FB0260E085E30E94B510C0931D0324
:2031A00061E083E30E94B5108091E902882351F060E005C060E083E30E94B51061E082E361
:2031C0000E94B51080911D03811104C08091FB028111D7C18091FA02882309F4B6C1E4D8E1
:2031E0000091190310911A0320911B0330911C03DC01CB01801B910BA20BB30B893E9340D0
:20320000A105B10508F440C0CFD86093190370931A0380931B0390931C030091F6021091E3
:20322000F7022091F8023091F9025B016C01A01AB10AC20AD30AA092F202B092F302C09298
:20324000F402D092F50200911503109116032091170330911803DC01CB01801B910BA20B88
:20326000B30B8093EE029093EF02A093F002B093F10280911403833018F40E949C0E04C027
:20328000D09314030E94FD0D8091ED02882321F01092ED021092FA0210911403113079F0BB
:2032A00038F0123009F4B2C0133009F433C169C1C0931C0280911B0280931A02FCC080913C
:2032C000EC028823C9F08091160290911702A0911802B091190280930C0390930D03A0930A
:2032E0000E03B0930F038091120290911302A0911402B09115021CC080911C02813019F7A2
:2033000080910E0290910F02A0911002B091110280930C0390930D03A0930E03B0930F03D5
:2033200080910A0290910B02A0910C02B0910D028093080390930903A0930A03B0930B03D5
:203340004090FC025090FD026090FE027090FF0280900C0390900D03A0900E03B0900F03ED
:203360002DEC3CEC4CEC5DE3C501B401F3D29B01AC01C301B20198D187FF1FC015D8009148
:2033800010031091110320911203309113032B013C01401A510A620A730A2091090230E0F5
:2033A000A0E6BAEEC8D2641575058605970518F4C093EB025DC043D9E4C02DEC3CEC4CEC89
:2033C0005DE3C501B401C7D29B01AC01C301B201BFD3181644F48091EA02811104C080917D
:2033E000E902882389F012DB80911A0201D9F09214030E94D4116093040370930503809392
:20340000060390930703BDC03BD9BBC0209108033091090340910A0350910B036091FC0225
:203420007091FD028091FE029091FF0291D387FD33C00E94D4114090040350900503609048
:203440000603709007039B01AC01241935094609570929013A012091080230E0A8EEB3E08D
:203460006AD2641575058605970590F41093EB0210921403E0921D021092FA021092ED0269
:203480001CD961E085E30E94B5100E94B80C79C080911A02ADD875C0D2D8B8DA80911C0236
:2034A000909107028917A0F49091EC02911110C08F5F80931C02C09314030E94D41160932A
:2034C000100370931103809312039093130359C0809106028093070280911A0290910502BE
:2034E0008917A0F490910402992381F08F5F80931A020E94D4116093150370931603809366
:20350000170390931803C0931C02D5CFD0931403B7D816C02DEC3CEC4CEC5DE36091FC02B7
:203520007091FD028091FE029091FF02BDD087FF28C01092FA021092ED0210931D02BDD8D7
:2035400061E085E30E94B5101CC08091E8028823C1F01092E802C093FA02109214030E94F2
:20356000D4116093F6027093F7028093F8029093F9026093150370931603809317039093DD
:2035800018030E940210C8CC82E680931D020E94690DA1CC1092400310923F0388EE93E0F7
:2035A000A0E0B0E08093410390934203A0934303B09344038EE292E090933E0380933D03A0
:2035C00085EC90E090934A038093490384EC90E090934C0380934B0380EC90E090934E0338
:2035E00080934D0381EC90E09093500380934F0382EC90E0909352038093510386EC90E011
:2036000090935403809353031092560310925703109258031092590384E690E09093DB03FA
:203620008093DA031092DF031092DE0380E492E09093DD038093DC0388E08093E0038DE0FD
:203640008093E10389E08093E20384E08093E30385E08093E40386E08093E50387E080937B
:20366000E6031092E7031092E8031092E9031092EA0361E088E00E94E4108091E1038F3F29
:2036800019F061E00E94E41061E08091E2030E94E4101092EB0361E08CED93E038D810920E
:2036A000F6031092F503089540D008F481E00895E89409C097FB3EF4909580957095619592
:2036C0007F4F8F4F9F4F9923A9F0F92F96E9BB279395F695879577956795B795F111F8CF86
:2036E000FAF4BB0F11F460FF1BC06F5F7F4F8F4F9F4F16C0882311F096E911C0772321F0EE
:203700009EE8872F762F05C0662371F096E8862F70E060E02AF09A95660F771F881FDAF78A
:20372000880F9695879597F90895990F0008550FAA0BE0E8FEEF16161706E807F907C0F018
:2037400012161306E407F50798F0621B730B840B950B39F40A2661F0232B242B252B21F4DF
:2037600008950A2609F4A140A6958FEF811D811D08950BD078C069D028F06ED018F09523AA
:2037800009F05AC05FC01124A2C07ED0A0F3959FD1F3950F50E0551F629FF001729FBB275A
:2037A000F00DB11D639FAA27F00DB11DAA1F649F6627B00DA11D661F829F2227B00DA11D62
:2037C000621F739FB00DA11D621F839FA00D611D221F749F3327A00D611D231F849F600D62
:2037E000211D822F762F6A2F11249F5750408AF0E1F088234AF0EE0FFF1FBB1F661F771FA1
:20380000881F91505040A9F79E3F510570F014C05EC05F3FECF3983EDCF386957795679526
:20382000B795F795E7959F5FC1F7FE2B880F911D9695879597F9089597F99F6780E870E04E
:2038400060E008959FEF80EC089500240A941616170618060906089500240A94121613061C
:20386000140605060895092E0394000C11F4882352F0BB0F40F4BF2B11F460FF04C06F5FDC
:203880007F4F8F4F9F4F089557FD9058440F551F59F05F3F71F04795880F97FB991F61F098
:2038A0009F3F79F087950895121613061406551FF2CF4695F1DF08C0161617061806991FE6
:2038C000F1CF86957105610508940895E894BB2766277727CB0197F90895DC01CB01FC01D0
:2038E000F999FECF06C0F2BDE1BDF89A319600B40D9241505040B8F70895F999FECF92BD8F
:2039000081BDF89A992780B50895A8E1B0E042E050E0E5CF262FF999FECF1FBA92BD81BD0C
:2039200020BD0FB6F894FA9AF99A0FBE01960895F1DF272FF0CFA29FB001B39FC001A39F05
:20394000700D811D1124911DB29F700D811D1124911D08955058BB27AA270ED084CF75DF9D
:2039600030F07ADF20F031F49F3F11F41EF46ACF0EF4E095E7FB60CFE92F86DF80F3BA1722
:20398000620773078407950718F071F49EF59ECF0EF4E0950B2EBA2FA02D0B01B9019001F3
:2039A0000C01CA01A0011124FF27591B99F0593F50F4503E68F11A16F040A22F232F342F8D
:2039C0004427585FF3CF469537952795A795F0405395C9F77EF41F16BA0B620B730B840BA6
:2039E000BAF09150A1F0FF0FBB1F661F771F881FC2F70EC0BA0F621F731F841F48F48795A3
:203A000077956795B795F7959E3F08F0B3CF9395880F08F09927EE0F9795879508950CD03A
:203A200022CF1ADF40F011DF30F021F45F3F19F003CF51114CCF06CF27DF98F39923C9F373
:203A40005523B1F3951B550BBB27AA2762177307840738F09F5F5F4F220F331F441FAA1F86
:203A6000A9F333D00E2E3AF0E0E830D091505040E695001CCAF729D0FE2F27D0660F771F88
:203A8000881FBB1F261737074807AB07B0E809F0BB0B802DBF01FF2793585F4F2AF09E3FAF
:203AA000510568F0C9CE13CF5F3FECF3983EDCF3869577956795B795F7959F5FC9F7880F6D
:203AC000911D9695879597F90895E1E0660F771F881FBB1F621773078407BA0720F0621BAB
:203AE000730B840BBA0BEE1F88F7E095089504D06894B111ECCE0895CFDE88F09F5790F0D2
:203B0000B92F9927B751A0F0D1F0660F771F881F991F1AF0BA95C9F712C0B13081F0D6DE49
:203B2000B1E00895D3CE672F782F8827B85F39F0B93FCCF3869577956795B395D9F73EF466
:203B400090958095709561957F4F8F4F9F4F0895ECDD08F48FEF0895E8DD880B990B089580
:203B6000AA1BBB1B51E107C0AA1FBB1FA617B70710F0A61BB70B881F991F5A95A9F780950D
:203B80009095BC01CD010895A1E21A2EAA1BBB1BFD010DC0AA1FBB1FEE1FFF1FA217B30766
:203BA000E407F50720F0A21BB30BE40BF50B661F771F881F991F1A9469F76095709580950D
:203BC00090959B01AC01BD01CF010895052E97FB16F400940FD057FD05D0D6DF07FC02D057
:203BE00046F408C050954095309521953F4F4F4F5F4F089590958095709561957F4F8F4F36
:203C00009F4F0895EE0FFF1F881F8BBF0790F691E02D199481E090E0F89400C0F894FFCFBE
:203C20001EFFFFFF010C1E0A050A0000004000008040000040400000F0400101010163000E
:203C4000AB02000040001400540000000000E6097F09AA092C0AF60FB909CD090000000012
:203C600097127F0991109010505F30203D2000505F6D6178203D20006E616E00696E66008A
:203C80006F7666004D61696E53746174653D004B65793D004155544F504F56544F5200305D
:203CA0000020D181D0B5D0BA0020D0BCD0B8D0BD003A000D0A00417474656D707420746F8F
:203CC000207772697465206F757473696465206F6620454550524F4D206D656D6F727900E6
:203CE0004578636565646564206D6178696D756D206E756D626572206F66207772697465A6
:203D00007300FFFFFFFFFFFFFFFFFFFFFFFFFFFFFFFFFFFFFFFFFFFFFFFFFFFFFFFFFFFF4E
:203D2000FFFFFFFFFFFFFFFFFFFFFFFFFFFFFFFFFFFFFFFFFFFFFFFFFFFFFFFFFFFFFFFFA3
:203D4000FFFFFFFFFFFFFFFFFFFFFFFFFFFFFFFFFFFFFFFFFFFFFFFFFFFFFFFFFFFFFFFF83
:203D6000FFFFFFFFFFFFFFFFFFFFFFFFFFFFFFFFFFFFFFFFFFFFFFFFFFFFFFFFFFFFFFFF63
:203D8000FFFFFFFFFFFFFFFFFFFFFFFFFFFFFFFFFFFFFFFFFFFFFFFFFFFFFFFFFFFFFFFF43
:203DA000FFFFFFFFFFFFFFFFFFFFFFFFFFFFFFFFFFFFFFFFFFFFFFFFFFFFFFFFFFFFFFFF23
:203DC000FFFFFFFFFFFFFFFFFFFFFFFFFFFFFFFFFFFFFFFFFFFFFFFFFFFFFFFFFFFFFFFF03
:203DE000FFFFFFFFFFFFFFFFFFFFFFFFFFFFFFFFFFFFFFFFFFFFFFFFFFFFFFFFFFFFFFFFE3
:203E0000D3CE672F782F8827B85F39F0B93FCCF3869577956795B395D9F73EF49095809577
:203E2000709561957F4F8F4F9F4F0895ECDD08F48FEF0895E8DD880B990B0895AA1BBB1B3C
:203E400051E107C0AA1FBB1FA617B70710F0A61BB70B881F991F5A95A9F780959095BC01E3
:203E6000CD010895A1E21A2EAA1BBB1BFD010DC0AA1FBB1FEE1FFF1FA217B307E407F5077E
:203E800020F0A21BB30BE40BF50B661F771F881F991F1A9469F760957095809590959B0150
:203EA000AC01BD01CF010895052E97FB16F400940FD057FD05D0D6DF07FC02D046F408C033
:203EC00050954095309521953F4F4F4F5F4F089590958095709561957F4F8F4F9F4F0895CA
:203EE000EE0FFF1F881F8BBF0790F691E02D199490DEB7FF0895821B930B089581E090E074
:203F0000F89400C0F894FFCF1EFFFFFF0C1E0A050000004000008040000040400000F040F7
:203F20000A0101010101AB0263000000400014005400000000004D0BBB0AE60A930B170BED
:203F4000F50A090B000000009C0EBB0A430C420C505F30203D2000505F6D6178203D200074
:203F60006E616E00696E66006F7666004D61696E53746174653D004B65793D004155544F1A
:203F8000504F56544F5200204D53743D002053746F703D00205353746172743D002053652D
:203FA000723D002050726F673D00205A73743D00205A74656B3D00204E3D002050313D003B
:203FC0002050323D00205074656B3D00204973683D00204E503D0020505A3D002053503D8E
:203FE0000020504D3D0020557374546E643D0020546E643D00300020D181D0B5D0BA0020B4
:20400000D0BCD0B8D0BD003A000D0A00417474656D707420746F207772697465206F757409
:2040200073696465206F6620454550524F4D206D656D6F7279004578636565646564206DA1
:204040006178696D756D206E756D626572206F662077726974657300FFFFFFFFFFFFFFFF7B
:20406000FFFFFFFFFFFFFFFFFFFFFFFFFFFFFFFFFFFFFFFFFFFFFFFFFFFFFFFFFFFFFFFF60
:20408000FFFFFFFFFFFFFFFFFFFFFFFFFFFFFFFFFFFFFFFFFFFFFFFFFFFFFFFFFFFFFFFF40
:2040A000FFFFFFFFFFFFFFFFFFFFFFFFFFFFFFFFFFFFFFFFFFFFFFFFFFFFFFFFFFFFFFFF20
:2040C000FFFFFFFFFFFFFFFFFFFFFFFFFFFFFFFFFFFFFFFFFFFFFFFFFFFFFFFFFFFFFFFF00
:2040E000FFFFFFFFFFFFFFFFFFFFFFFFFFFFFFFFFFFFFFFFFFFFFFFFFFFFFFFFFFFFFFFFE0
:20410000D0BD003A000D0A00417474656D707420746F207772697465206F75747369646577
:20412000206F6620454550524F4D206D656D6F7279004578636565646564206D6178696D96
:20414000756D206E756D626572206F662077726974657300FFFFFFFFFFFFFFFFFFFFFFFF2D
:20416000FFFFFFFFFFFFFFFFFFFFFFFFFFFFFFFFFFFFFFFFFFFFFFFFFFFFFFFFFFFFFFFF5F
:20418000FFFFFFFFFFFFFFFFFFFFFFFFFFFFFFFFFFFFFFFFFFFFFFFFFFFFFFFFFFFFFFFF3F
:2041A000FFFFFFFFFFFFFFFFFFFFFFFFFFFFFFFFFFFFFFFFFFFFFFFFFFFFFFFFFFFFFFFF1F
:2041C000FFFFFFFFFFFFFFFFFFFFFFFFFFFFFFFFFFFFFFFFFFFFFFFFFFFFFFFFFFFFFFFFFF
:2041E000FFFFFFFFFFFFFFFFFFFFFFFFFFFFFFFFFFFFFFFFFFFFFFFFFFFFFFFFFFFFFFFFDF
:204200000E94B00486B16EEF70E08CE20E94E90387B187B988B188B987B187B988B188B984
:2042200061E070E080E090E00E94B00486B161E070E08DE20E94E90387B187B988B188B910
:2042400087B187B988B188B961E070E080E090E00E94B00486B143E050E06CE270E08DE21E
:2042600090E00E943E0561E070E08CE20E94E90387B187B988B188B987B187B988B188B978
:2042800061E070E080E090E00E94B00486B143E050E06CE270E08DE290E00E943E0587B143
:2042A00087B988B188B987B187B988B188B961E070E080E090E00E94B00486B143E050E011
:2042C0006CE270E08DE290E00E943E0587B187B988B188B987B187B988B188B961E070E007
:2042E00080E090E00E94B00486B143E050E06CE270E08DE290E00E943E0561E070E08DE2AC
:204300000E94E90387B187B988B188B987B187B988B188B961E070E080E090E00E94B00474
:2043200086B143E050E06CE270E08DE290E00E943E0561E070E08CE20E94E90387B187B98C
:2043400088B188B987B187B988B188B961E070E080E090E00E94B00486B143E050E06CE262
:2043600070E08DE290E00E943E0561E070E08CE20E94E90387B187B988B188B987B187B932
:2043800088B188B961E070E080E090E00E94B00486B144E050E06DE270E08CE290E00E9442
:2043A0003E0561E070E08DE20E94E90387B187B988B188B987B187B988B188B961E070E0B7
:2043C00080E090E00E94B00486B144E050E06DE270E08CE290E00E943E0587B187B988B119
:2043E00088B987B187B988B188B961E070E080E090E00E94B00486B144E050E06DE270E0A9
:204400008CE290E00E943E0587B187B988B188B987B187B988B188B961E070E080E090E094
:204420000E94B00486B144E050E06DE270E08CE290E00E943E0561E070E08CE20E94E903AC
:2044400087B187B988B188B987B187B988B188B961E070E080E090E00E94B00486B144E066
:2044600050E06DE270E08CE290E00E943E0561E070E08DE20E94E90387B187B988B188B92A
:2044800087B187B988B188B961E070E080E090E00E94B00486B144E050E06DE270E08CE2DB
:2044A00090E00E943E056EEF70E08EE20E94E90387B187B988B188B987B187B988B188B918
:2044C00061E070E080E090E00E94B00486B187B187B988B188B987B187B988B188B961E0C9
:2044E00070E080E090E00E94B00486B16EEF70E08EE20E94E90387B187B988B188B987B13A
:2045000087B988B188B961E070E080E090E00E94B00486B187B187B988B188B987B187B989
:2045200088B188B961E070E080E090E00E94B00486B187B187B988B188B987B187B988B170
:2045400088B961E070E080E090E00E94B00486B16EEF70E08EE20E94E90387B187B988B1D0
:2045600088B987B187B988B188B961E070E080E090E00E94B00486B187B187B988B188B928
:2045800087B187B988B188B961E070E080E090E00E94B00486B16EEF70E08EE20E94E90390
:2045A00087B187B988B188B987B187B988B188B961E070E080E090E00E94B00486B187B1F1
:2045C00087B988B188B987B187B988B188B961E070E080E090E00E94B00486B143E050E0EE
:2045E0006EE270E08FE290E00E943E0561E070E08EE20E94E90387B187B988B188B987B19C
:2046000087B988B188B961E070E080E090E00E94B00486B143E050E06EE270E08FE290E01E
:204620000E943E0587B187B988B188B987B187B988B188B961E070E080E090E00E94B004FA
:2046400086B143E050E06EE270E08FE290E00E943E0561E070E08EE20E94E90387B187B963
:2046600088B188B987B187B988B188B961E070E080E090E00E94B00486B143E050E06EE23D
:2046800070E08FE290E00E943E0561E070E08EE20E94E90387B187B988B188B987B187B90B
:2046A00088B188B961E070E080E090E00E94B00486B144E050E06FE270E08EE290E00E941B
:2046C0003E0587B187B988B188B987B187B988B188B961E070E080E090E00E94B00486B1C5
:2046E00044E050E06FE270E08EE290E00E943E0561E070E08EE20E94E90387B187B988B1C0
:2047000088B987B187B988B188B961E070E080E090E00E94B00486B144E050E06FE270E083
:204720008EE290E00E943E0587B187B988B188B987B187B988B188B961E070E080E090E06F
:204740000E94B00486B144E050E06FE270E08EE290E00E943E0587B187B988B188B987B1E8
:2047600087B988B188B961E070E080E090E00E94B00486B187B187B988B188B987B187B927
:2047800088B188B961E070E080E090E00E94B00486B187B187B988B188B987B187B988B10E
:2047A00088B961E070E080E090E00E94B00486B187B187B988B188B987B187B988B188B9E6
:2047C00061E070E080E090E00E94B00486B187B187B988B188B987B187B988B188B961E0C6
:2047E00070E080E090E00E94B00486B143E050E060E370E081E390E00E943E0587B187B9F5
:2048000088B188B987B187B988B188B961E070E080E090E00E94B00486B143E050E060E3A8
:2048200070E081E390E00E943E0587B187B988B188B987B187B988B188B961E070E080E09A
:2048400090E00E94B00486B144E050E061E370E080E390E00E943E0587B187B988B188B9C9
:2048600087B187B988B188B961E070E080E090E00E94B00486B144E050E061E370E080E30D
:2048800090E00E943E0587B187B988B188B987B187B988B188B961E070E080E090E00E94DC
:2048A000B00486B187B187B988B188B987B187B988B188B961E070E080E090E00E94B00472
:2048C00086B187B187B988B188B987B187B988B188B961E070E080E090E00E94B00486B1CF
:2048E00087B187B988B188B987B187B988B188B961E070E080E090E00E94B00486B187B1AE
:2049000087B988B188B987B187B988B188B961E070E080E090E00E94B00486B143E050E0AA
:2049200062E370E083E390E00E943E0587B187B988B188B987B187B988B188B961E070E0B2
:2049400080E090E00E94B00486B143E050E062E370E083E390E00E943E0587B187B988B1A6
:2049600088B987B187B988B188B961E070E080E090E00E94B00486B144E050E063E370E02C
:2049800082E390E00E943E0587B187B988B188B987B187B988B188B961E070E080E090E018
:2049A0000E94B00486B144E050E063E370E082E390E00E943E0587B187B988B188B987B19C
:2049C00087B988B188B96AE070E080E090E00E94B00486B187B187B988B188B987B187B9BC
:2049E00088B188B961E070E080E090E00E94B00486B187B187B988B188B987B187B988B1AC
:204A000088B961E070E080E090E00E94B00486B187B187B988B188B987B187B988B188B983
:204A20006AE070E080E090E00E94B00486B187B187B988B188B987B187B988B188B96AE051
:204A400070E080E090E00E94B00486B143E050E064E370E085E390E00E943E0587B187B98A
:204A600088B188B987B187B988B188B96AE070E080E090E00E94B00486B143E050E064E339
:204A800070E085E390E00E943E0587B187B988B188B987B187B988B188B96AE070E080E02B
:204AA00090E00E94B00486B144E050E065E370E084E390E00E943E0587B187B988B188B95F
:204AC00087B187B988B188B96AE070E080E090E00E94B00486B144E050E065E370E084E39A
:204AE00090E00E943E05C4E1D0E060E08C2F0E94AD0360E08C2F0E947E0361E01C2F1F5F97
:204B0000812F0E94AD0361E0812F0E947E036AE070E080E090E00E94B0048C2F0E94560309
:204B2000813041F045E050E0BE016F5F7F4FCE010E943E052296C633D105B9F605E010E024
:204B4000E80123976E0183E0C80ED11C60E08C2F0E94AD0360E08C2F0E947E0361E0FC2E47
:204B600083E0F80E8F2D0E94AD0361E08F2D0E947E036AE070E080E090E00E94B0048C2F23
:204B80000E945603813031F046E050E0B601CE010E943E052196C017D107A1F68E010A5F92
:204BA0001F4F0731110561F685E492E00E946C0586E692E00E946C050E9442020C94D506A2
:204BC000E5E8F2E01382128288EE93E0A0E0B0E084839583A683B78384E092E091838083A5
:204BE00085EC90E09587848784EC90E09787868780EC90E0918B808B81EC90E0938B828B97
:204C000082EC90E0958B848B86EC90E0978B868B118E128E138E148E0895A1E21A2EAA1BC3
:204C2000BB1BFD010DC0AA1FBB1FEE1FFF1FA217B307E407F50720F0A21BB30BE40BF50B31
:204C4000661F771F881F991F1A9469F760957095809590959B01AC01BD01CF010895EE0F27
:204C6000FF1F881F8BBF0790F691E02D199481E090E0F89400C0F894FFCF00000000DB01FA
:204C80005801A501830197012102666173742076657273696F6E206F662062656E63686D80
:204CA00061726B3A006F6C642076657273696F6E206F662062656E63686D61726B3A0046D7
:204CC000696E6973686564206F6E65206379636C65207468726F7567682070696E732E0035
:204CE0000D0A006572726F72202300202D2D3E2070696E200000FFFFFFFFFFFFFFFFFFFFFB
:204D0000FFFFFFFFFFFFFFFFFFFFFFFFFFFFFFFFFFFFFFFFFFFFFFFFFFFFFFFFFFFFFFFFB3
:204D2000FFFFFFFFFFFFFFFFFFFFFFFFFFFFFFFFFFFFFFFFFFFFFFFFFFFFFFFFFFFFFFFF93
:204D4000FFFFFFFFFFFFFFFFFFFFFFFFFFFFFFFFFFFFFFFFFFFFFFFFFFFFFFFFFFFFFFFF73
:204D6000FFFFFFFFFFFFFFFFFFFFFFFFFFFFFFFFFFFFFFFFFFFFFFFFFFFFFFFFFFFFFFFF53
:020000040003F7
:20E000000D94F6F20D941FF30D941FF30D941FF30D941FF30D941FF30D941FF30D941FF392
:20E020000D941FF30D941FF30D941FF30D941FF30D941FF30D941FF30D941FF30D941FF348
:20E040000D941FF30D941FF30D941FF30D941FF30D941FF30D941FF30D941FF30D941FF328
:20E060000D941FF30D941FF30D941FF30D941FF30D941FF30D941FF30D941FF30D941FF308
:20E080000D941FF30D941FF30D941FF30D941FF30D941FF30D941FF30D941FF30D941FF3E8
:20E0A0000D941FF30D941FF30D941FF30D941FF30D941FF30D941FF30D941FF30D941FF3C8
:20E0C0000D941FF30D941FF30D941FF30D941FF30D941FF30D941FF30D941FF30D941FF3A8
:20E0E0000D941FF341546D656761323536300041726475696E6F206578706C6F72657220EE
:20E1000073746B3530305632206279204D4C5300426F6F746C6F616465723E004875683FDC
:20E1200000436F6D70696C6564206F6E20203D2000435055205479706520202020203D2071
:20E14000005F5F4156525F415243485F5F203D2000415652204C69624320566572203D2033
:20E16000004743432056657273696F6E20203D2000435055207369676E61747572653D20F8
:20E18000004C6F77206675736520202020203D2000486967682066757365202020203D204D
:20E1A00000457874206675736520202020203D20004C6F636B2066757365202020203D2025
:20E1C00000536570202039203230313000312E362E3700342E332E3300562320202041446D
:20E1E00044522020206F7020636F64652020202020696E737472756374696F6E20616464E4
:20E2000072202020496E74657272757074006E6F20766563746F7200726A6D702020006A6C
:20E220006D7020005768617420706F72743A00506F7274206E6F7420737570706F72746576
:20E2400064004D7573742062652061206C65747465720020005772697474696E6720454577
:20E260000052656164696E6720454500656570726F6D206572726F7220636F756E743D00E2
:20E28000504F525400303D5A65726F20616464726573732063747273003F3D435055207353
:20E2A0007461747300403D454550524F4D207465737400423D426C696E6B204C45440045D4
:20E2C0003D44756D7020454550524F4D00463D44756D7020464C41534800483D48656C70CE
:20E2E000004C3D4C69737420492F4F20506F72747300513D517569742026206A756D702067
:20E30000746F20757365722070676D00523D44756D702052414D00563D73686F7720696E67
:20E320007465727275707420566563746F727300593D506F727420626C696E6B002A0052DA
:20E340004553455400494E543000494E543100494E543200494E543300494E543400494E64
:20E36000543500494E543600494E5437005043494E5430005043494E5431005043494E54F6
:20E3800032005744540054494D45523020434F4D50410054494D45523020434F4D504200D9
:20E3A00054494D455230204F56460054494D45523120434150540054494D45523120434F43
:20E3C0004D50410054494D45523120434F4D50420054494D45523120434F4D50430054493B
:20E3E0004D455231204F56460054494D45523220434F4D50410054494D45523220434F4D08
:20E4000050420054494D455232204F56460054494D45523320434150540054494D455233FC
:20E4200020434F4D50410054494D45523320434F4D50420054494D45523320434F4D5043C1
:20E440000054494D455233204F56460054494D45523420434150540054494D4552342043E8
:20E460004F4D50410054494D45523420434F4D50420054494D45523420434F4D504300548E
:20E48000494D455234204F56460054494D45523520434150540054494D45523520434F4D5D
:20E4A00050410054494D45523520434F4D50420054494D45523520434F4D50430054494D52
:20E4C000455235204F56460055534152543020525800555341525430205544524500555325
:20E4E0004152543020545800555341525431205258005553415254312055445245005553F7
:20E500004152543120545800555341525432205258005553415254322055445245005553D3
:20E520004152543220545800555341525433205258005553415254332055445245005553B0
:20E540004152543320545800535049205354430041444300414E414C4F4720434F4D500016
:20E560004545205245414459005457490053504D205245414459002A003FE345E34AE34F13
:20E58000E354E359E35EE363E368E36DE374E37BE382E3E9E3F6E303E4ABE3B7E3C4E3D1BD
:20E5A000E3DEE386E393E3A0E348E5C8E4D2E4DEE454E550E560E50EE41AE427E434E441FD
:20E5C000E4E8E4F2E4FEE469E56DE54CE458E465E472E47FE48AE496E4A3E4B0E4BDE40819
:20E5E000E512E51EE528E532E53EE50011241FBECFEFD1E2DEBFCDBF01E00CBF12E0A0E02B
:20E60000B2E0EAEDFFEF03E00BBF02C007900D92A030B107D9F712E0A0E0B2E001C01D9232
:20E62000AC30B107E1F70F94FBF40D94EBFF01E20EBF0FEF0DBF11241FBE0D94FBF40D9494
:20E6400000F020E030E040ED57E005C0FA013197F1F72F5F3F4F28173907C0F308959C015E
:20E66000442737FD4095542FDA01C901860F911DA11DB11DABBFFC018791882369F0809399
:20E68000C6008091C00086FFFCCF8091C00080648093C0006F5FE8CF08958DE08093C600A3
:20E6A0008091C00086FFFCCF8091C00080648093C0008AE08093C6008091C00086FFFCCF4D
:20E6C0008091C00080648093C00008950F942FF30F944DF30895FC019081992359F090939A
:20E6E000C6008091C00086FFFCCF8091C00080648093C0003196992379F70895282F982FFD
:20E7000092959F70892F805D8A3308F0895F8093C6008091C00086FFFCCF8091C0008064E2
:20E720008093C000822F8F70982F905D9A3308F0995F9093C6008091C00086FFFCCF8091CA
:20E74000C00080648093C00008959C01FB01853691051CF46330710594F0C90164E670E0BA
:20E760000F948CFF605D7F4F6093C6008091C00086FFFCCF8091C00080648093C0002B3023
:20E78000310514F43297B4F0C90164E670E00F948CFF6AE070E00F948CFF605D7F4F6093F6
:20E7A000C6008091C00086FFFCCF8091C00080648093C000C9016AE070E00F948CFFC09602
:20E7C0008093C6008091C00086FFFCCF8091C00080648093C0000895282F277020642093F5
:20E7E0007C0020917B0086958695869590E08170907033E0880F991F3A95E1F7277F282BBD
:20E8000020937B0080917A00806480937A0080917A0086FDFCCF2091780040917900942FBF
:20E8200080E030E0282B392BC90108951F93182F80E892EE60E00F942FF31093C6008091EA
:20E84000C00086FFFCCF8091C00080648093C0000F944DF31F9108952F923F924F925F928C
:20E860006F927F928F929F92AF92BF92CF92DF92EF92FF920F931F93DF93CF93CDB7DEB77D
:20E8800062970FB6F894DEBF0FBECDBF382E622ECA01DB015C016D01772460E2262E2E0170
:20E8A0000894411C511C8BC081E0A81680E0B80681E0C80680E0D80628F0C601AA27BB276B
:20E8C0000F947EF3BB27AD2D9C2D8B2D0F947EF38A2D0F947EF32092C6008091C00086FF3A
:20E8E000FCCF8091C00080648093C0009DE29093C6008091C00086FFFCCF8091C000806487
:20E900008093C0002092C6008091C00086FFFCCF8091C00080648093C0001982860175016B
:20E9200088249924A1E03A1651F03A1620F0B2E03B1661F409C00BBFF701779007C0C701A3
:20E940000F94D5FF782E02C0F7017080872D0F947EF32092C6008091C00086FFFCCF80917E
:20E96000C00080648093C000872D8052F401EF70F0708F3520F4E40DF51D708204C0E40D64
:20E98000F51D8EE280830894E11CF11C011D111D0894811C911C90E18916910409F0C2CFEB
:20E9A00080E190E0A0E0B0E0A80EB91ECA1EDB1E198AC2010F946BF30F944DF36A9466203A
:20E9C00009F072CF62960FB6F894DEBF0FBECDBFCF91DF911F910F91FF90EF90DF90CF90C2
:20E9E000BF90AF909F908F907F906F905F904F903F902F9008952F923F924F925F926F92CF
:20EA00007F928F929F92AF92BF92CF92DF92EF92FF920F931F93DF93CF93CDB7DEB7CD53BC
:20EA2000D1400FB6F894DEBF0FBECDBF279A2F9A8091C00082608093C00080E18093C40036
:20EA400088E18093C1000000EE24FF248701B4E0AB2EB12CCC24DD2424C0C5010197F1F757
:20EA60000894E11CF11C011D111D21E2E2162EE4F20620E0020720E0120718F0A1E0CA2EFC
:20EA8000D12CC801B70128E53BE140E050E00F949FFF611571058105910519F485B180581B
:20EAA00085B98091C00087FD03C0C114D104A9F2A6014F5F5F4FC25EDE4F59834883CE51A5
:20EAC000D140C25EDE4F68817981CE51D1406130710511F00D946EFFC05DDE4F1982188230
:20EAE000C053D14060E0C15DDE4F1882CF52D140AA24BB24C05EDE4F188219821A821B8235
:20EB0000C052D140CE5CDE4F188219821A821B82C253D14080E090E0A0E0B0E0ABBFFC01A0
:20EB2000A791B691C45CDE4FB983A883CC53D1400D9469FFC25EDE4FE881F981CE51D14009
:20EB4000319709F52091C600C25EDE4F19821882CE51D14022C02F5F3F4F4F4F5F4F21302B
:20EB6000F2E13F07FAE74F07F0E05F0780F0C45CDE4F08811981CC53D1400F5F1F4F19F01A
:20EB8000EE27FF27099420E030E040E050E08091C00087FFE0CF2091C600213209F094C61A
:20EBA0000894A11CB11C33E0A316B10409F08EC600E010E018C041E24093C6008091C0002C
:20EBC00086FFFCCF8091C00080648093C0002F5F3F4F2931310579F70F944DF30F5F1F4F82
:20EBE0000530110519F020E030E0E5CF109208021092090210920A0210920B02109204029F
:20EC0000109205021092060210920702109200021092010210920202109203028FEE90EE65
:20EC200060E00F9466F380E191EE60E00F942FF38091C00087FFFCCF9091C600903608F0EC
:20EC40009F759032B8F09093C6008091C00086FFFCCF8091C00080648093C00080E280932F
:20EC6000C6008091C00086FFFCCF8091C00080648093C000983409F4DBC19934B8F4923481
:20EC800009F45DC1933458F4903319F1903308F418C69F33A1F1903409F013C6BDC095349C
:20ECA00009F474C1963409F00CC69CC1923509F42FC2933538F49C3409F4F9C1913509F041
:20ECC00000C61CC2963509F449C2993509F0F9C59CC485E892EE62E00F9466F31092040205
:20ECE000109205021092060210920702109208021092090210920A0210920B0217C189E916
:20ED000092EE62E00F9466F38FEE90EE60E00F9466F381E291EE60E00F942FF381EC91EE2B
:20ED200060E00F9466F381E391EE60E00F942FF384EE90EE60E00F9466F381E491EE60E05F
:20ED40000F942FF386E090E061E070E00F94A5F30F944DF381E691EE60E00F942FF383ED0E
:20ED600091EE60E00F9466F381E591EE60E00F942FF38DEC91EE60E00F9466F381E791EED3
:20ED800060E00F942FF38EE10F947EF388E90F947EF381E00F947EF30F944DF381E891EE26
:20EDA00060E00F942FF319E0E0E0F0E010935700E4918E2F0F947EF30F944DF381E991EEB9
:20EDC00060E00F942FF3E3E0F0E010935700E4918E2F0F947EF30F944DF381EA91EE60E04E
:20EDE0000F942FF3E2E0F0E010935700E4918E2F0F947EF30F944DF381EB91EE60E00F94CB
:20EE00002FF3E1E0F0E0109357001491812F0F947EF30F944DF307CF85EA92EE62E00F944F
:20EE200066F385E592EE60E00F9466F30F944DF300E010E019C0C8016F2D0F94DDFFFF20C4
:20EE400031F483E592EE60E00F942FF30BC0F092C6008091C00086FFFCCF8091C0008064B7
:20EE60008093C0000F5F1F4FC80181519F41AA2797FDA095BA2FABBFFC01F7905AE2F516B0
:20EE800021F062E000301607B1F60F944DF30F944DF381E692EE60E00F9466F30F944DF35F
:20EEA000CC24DD2400E010E01EC0C8010F94D5FFF82E882331F483E592EE60E00F942FF390
:20EEC0000BC08093C6008091C00086FFFCCF8091C00080648093C000FE1419F00894C11C51
:20EEE000D11C0F5F1F4FC80181519F41AA2797FDA095BA2FABBFFC01E7907AE2E71621F003
:20EF000082E00030180789F60F944DF30F944DF38CE692EE60E00F942FF3C60161E070E0AC
:20EF20000F94A5F30F944DF30F944DF31092000210920102109202021092030274CE83EB8A
:20EF400092EE62E00F9466F3279A2F9A16C02F9880E090E0E0EDF7E03197F1F70196843657
:20EF60009105C1F72F9A80E090E0E0EDF7E03197F1F7019684369105C1F78091C00087FF60
:20EF8000E6CF8091C00087FFFCCF95C48FEB92EE62E00F9466F34091000250910102609161
:20EFA00002027091030281E020E10F942CF48091000290910102A0910202B09103028050A0
:20EFC0009F4FAF4FBF4F8093000290930102A0930202B093030280509041A040B04008F410
:20EFE00022CEA4CF8DEC92EE62E00F9466F34091040250910502609106027091070280E055
:20F0000020E10F942CF48091040290910502A0910602B091070280509F4FAF4FBF4F80938D
:20F02000040290930502A0930602B0930702FBCD8AED92EE62E00F9466F385E892EE60E0EF
:20F040000F9466F389E992EE60E00F9466F385EA92EE60E00F9466F383EB92EE60E00F948A
:20F0600066F38FEB92EE60E00F9466F38DEC92EE60E00F9466F38AED92EE60E00F9466F399
:20F0800081EE92EE60E00F9466F382EF92EE60E00F9466F38CE093EE60E00F9466F387E187
:20F0A00093EE60E00F9466F380E393EEB9CD81EE92EE62E00F9466F381E40F9416F482E484
:20F0C0000F9416F483E40F9416F484E40F9416F485E40F9416F486E40F9416F487E40F941F
:20F0E00016F488E40F9416F48AE40F9416F48BE40F9416F48CE40F9416F495CD82EF92EE46
:20F1000062E00F9466F399249394AA24BB2445C48CE093EE62E00F9466F340910802509130
:20F12000090260910A0270910B0282E020E10F942CF48091080290910902A0910A02B091CE
:20F140000B0280509F4FAF4FBF4F8093080290930902A0930A02B0930B0265CD87E193EEE3
:20F1600062E00F9466F384EE90EE60E00F9466F389ED91EE60E00F9466F309E715EECC5DD8
:20F18000DE4F19830883C452D140662477244301CA5DDE4F19821882C652D140A4019301A0
:20F1A0005695479537952795C85DDE4F288339834A835B83C852D140CA5DDE4F488159817A
:20F1C000C652D1404F5F5F4FCA5DDE4F59834883C652D140CA0162E070E00F94A5F350E2BC
:20F1E0005093C6008091C00086FFFCCF8091C00080648093C0006DE26093C6008091C000E4
:20F2000086FFFCCF8091C00080648093C00070E27093C6008091C00086FFFCCF8091C00009
:20F2200080648093C000C85DDE4FE880F9800A811B81C852D140BB27A12F902F8F2D0F94C2
:20F240007EF3C85DDE4F8881C852D1400F947EF370E2F72EF092C6008091C00086FFFCCFC3
:20F260008091C00080648093C0000DE30093C6008091C00086FFFCCF8091C00080648093D4
:20F28000C00010E21093C6008091C00086FFFCCF8091C00080648093C0008BBEF3012791B5
:20F2A000C45DDE4F2883CC52D140A22EBB24CC24DD240894611C711C811C911C8BBEF30159
:20F2C0008791282E332444245524142D032DF22CEE24EA0CFB1C0C1D1D1D0894611C711CD1
:20F2E000811C911C8BBEF3013791C35DDE4F3883CD52D1400894611C711C811C911C8BBE4E
:20F30000F3014791C25DDE4F4883CE52D1402DEF3FEF4FEF5FEF620E731E841E951E0F940A
:20F320007EF330E23093C6008091C00086FFFCCF8091C00080648093C000C45DDE4F8881C1
:20F34000CC52D1400F947EF340E24093C6008091C00086FFFCCF8091C00080648093C00006
:20F36000C25DDE4F8881CE52D1400F947EF350E25093C6008091C00086FFFCCF8091C00026
:20F3800080648093C000C35DDE4F8881CD52D1400F947EF360E26093C6008091C00086FFCB
:20F3A000FCCF8091C00080648093C0007FEFE7167FEFF70670E0070770E0170731F48EE0C5
:20F3C00092EE60E00F942FF3DFC0D801C7018070907CA070B0708050904CA040B040D1F5FA
:20F3E0002FEF3FE340E050E0E222F32204231523C85DDE4FA880B980CA80DB80C852D14082
:20F40000AE0CBF1CC01ED11EAA0CBB1CCC1CDD1C88E192EE60E00F942FF3BB27A12F902FBD
:20F420008F2D0F947EF38E2D0F947EF330E23093C6008091C00086FFFCCF8091C0008064BC
:20F440008093C0004EE34093C6008091C00086FFFCCF87C06EE07EEF80E090E0E622F722FB
:20F46000082319237CE0E71674E9F70670E0070770E0170709F088C0C25DDE4F8881CE52F0
:20F48000D140E82EFF2400E010E0102F0F2DFE2CEE24C35DDE4F9881CD52D140E90EF11C01
:20F4A000011D111DD601C50181709070A070B070DC0199278827E80EF91E0A1F1B1F20EF77
:20F4C00030E040E050E0A222B322C422D522F1E1AA0CBB1CCC1CDD1CFA95D1F7EA0CFB1CB2
:20F4E0000C1D1D1D41E050E060E070E02422352246225722E5E1220C331C441C551CEA95B7
:20F50000D1F7E20CF31C041D151D57016801AA0CBB1CCC1CDD1C8FE192EE60E00F942FF3AF
:20F52000C801AA27BB270F947EF3BB27A12F902F8F2D0F947EF38E2D0F947EF350E2509316
:20F54000C6008091C00086FFFCCF8091C00080648093C0006EE36093C6008091C00086FFDC
:20F56000FCCF8091C00080648093C000C601AA27BB270F947EF3BB27AD2D9C2D8B2D0F94CA
:20F580007EF38A2D0F947EF370E27093C6008091C00086FFFCCF8091C00080648093C0006B
:20F5A000CC5DDE4FE881F981C452D140CF01AA2797FDA095BA2FABBFFC018791969160E0B2
:20F5C0000F942FF30F944DF3CC5DDE4F08811981C452D1400E5F1F4FCC5DDE4F198308838B
:20F5E000C452D140CA5DDE4F28813981C652D1402933310509F417CB44E050E060E070E0AF
:20F60000640E751E861E971EC9CD80E393EE62E00F9466F384E292EE60E00F942FF38091D8
:20F62000C00087FFFCCF1091C6001F751093C6008091C00086FFFCCF8091C000806480936C
:20F64000C0000F944DF3812F81548A3108F036C1163409F495C0173490F4133409F44EC01B
:20F66000143430F41134F1F0123409F01DC130C0143409F459C0153409F016C16BC01A34FB
:20F6800009F4C4C01B3438F4173409F48FC0183409F00AC1A1C01B3409F4D2C01C3409F03F
:20F6A00003C1E8C08FEF81B90DC082B1809582B980E090E0E0EDF7E03197F1F70196883C57
:20F6C0009105C1F78091C00087FFEFCF12B8EFC08FEF84B90DC085B1809585B980E090E06D
:20F6E000E0EDF7E03197F1F70196883C9105C1F78091C00087FFEFCF15B8D9C08FEF87B9D4
:20F700000DC088B1809588B980E090E0E0EDF7E03197F1F70196883C9105C1F78091C000EF
:20F7200087FFEFCF18B8C3C08FEF8AB90DC08BB180958BB980E090E0E0EDF7E03197F1F7EB
:20F740000196883C9105C1F78091C00087FFEFCF1BB8ADC08FEF8DB90DC08EB180958EB97F
:20F7600080E090E0E0EDF7E03197F1F70196883C9105C1F78091C00087FFEFCF1EB897C07A
:20F780008FEF80BB0DC081B3809581BB80E090E0E0EDF7E03197F1F70196883C9105C1F791
:20F7A0008091C00087FFEFCF11BA81C08FEF83BB0DC084B3809584BB80E090E0E0EDF7E0A0
:20F7C0003197F1F70196883C9105C1F78091C00087FFEFCF14BA6BC08FEF809301010FC060
:20F7E0008091020180958093020180E090E0E0EDF7E03197F1F70196883C9105C1F78091EC
:20F80000C00087FFEDCF1092020151C08FEF809304010FC08091050180958093050180E026
:20F8200090E0E0EDF7E03197F1F70196883C9105C1F78091C00087FFEDCF1092050137C0A9
:20F840008FEF809307010FC08091080180958093080180E090E0E0EDF7E03197F1F701963A
:20F86000883C9105C1F78091C00087FFEDCF109208011DC08FEF80930A010FC080910B0153
:20F88000809580930B0180E090E0E0EDF7E03197F1F70196883C9105C1F78091C00087FF10
:20F8A000EDCF10920B0103C08FE292EEB9C98091C00087FFFCCF8091C600B5C982E492EE4B
:20F8C000AFC98CE191EEACC9AA24BB24933061F1943028F4913089F0923008F508C0953027
:20F8E000B1F1953040F1963009F053C04EC02B3109F020C991E06BE11DC9213041F0C15D0F
:20F90000DE4F5881CF52D140251709F002C36227C15DDE4F2883CF52D14092E00BC9B22FDD
:20F92000A0E0622793E006C9822F90E0A82BB92B622794E0FFC82E3009F0EBC2622795E0DE
:20F94000C05DDE4F19821882C053D140F3C8E1E0F0E0EC0FFD1FC05DDE4FE880F980C05363
:20F96000D140EE0DFF1D208387010F5F1F4FC05DDE4F19830883C053D14062270A171B07F7
:20F9800009F0D8C8D80196E0D5C8261709F0C1C203C0973009F0CEC899248981833109F498
:20F9A000FCC08431C8F4863009F4C2C0873050F4823009F4F0C0833009F458C0813009F019
:20F9C0000AC23EC0813109F462C0823108F0A6C0803109F000C2DFC0883109F472C08931CE
:20F9E00050F4853109F4D9C0853108F477C1863109F0F1C173C18A3109F457C08A3108F471
:20FA00007CC08B3109F446C08D3109F0E4C18D81803311F090E00AC08F81882311F49EE154
:20FA200005C0813011F091E001C098E91A821B828D818C831D829E831F8227E030E0CFC13E
:20FA40001A8288E08B8381E48C8386E58D8382E58E8389E48F8383E5888780E589878FE54E
:20FA60008A8782E38B872BE030E0B9C18A81813941F0823941F0803911F48FE005C080E035
:20FA800003C082E001C08AE01A828B8344C09924939481C08D81882311F48EE12CC0813079
:20FAA00011F081E028C088E926C01A82E1E0F0E089E08093570084918B831C8224E030E0D0
:20FAC0008EC18B81803589F48C81883039F4E2E0F0E089E08093570084910DC0E0E0F0E0D0
:20FAE00089E080935700849106C0E3E0F0E089E08093570084911A82DFCF8D81836C99E01D
:20FB0000E1E0F0E0082E90935700E89507B600FCFDCF1A821B8223E030E061C11A82CE5C6E
:20FB2000DE4F188219821A821B82C253D14055C18A8190E0A0E0B0E0582F442733272227CE
:20FB40008B8190E0A0E0B0E0DC0199278827282B392B4A2B5B2B8D8190E0A0E0B0E0282B3A
:20FB6000392B4A2B5B2B8C8190E0A0E0B0E0BA2FA92F982F8827282B392B4A2B5B2B220F7F
:20FB8000331F441F551FC05EDE4F288339834A835B83C052D1401A8220C19A812B818331C4
